:020000040800F2
:10000000B04800205D02000823230008E91F000813
:1000100021230008AD090008E529000800000000C0
:100020000000000000000000000000009D0100082A
:10003000490B000800000000F901000865250008D0
:1000400077020008770200087702000877020008AC
:10005000770200087702000877020008770200089C
:10006000770200087702000877020008770200088C
:10007000770200087702000877020008770200087C
:10008000770200087702000877020008770200086C
:100090007702000877020008770200084B0B00087F
:1000A000770200087702000877020008770200084C
:1000B000770200087702000877020008770200083C
:1000C000770200087702000877020008770200082C
:1000D000770200087702000877020008770200081C
:1000E000770200087702000877020008770200080C
:1000F00077020008770200087702000877020008FC
:1001000077020008770200087702000877020008EB
:10011000E5260008F12600087702000877020008AB
:1001200077020008770200087702000877020008CB
:1001300077020008770200087702000877020008BB
:1001400077020008770200087702000877020008AB
:10015000770200087702000877020008D929000812
:10016000770200087702000877020008770200088B
:1001700077020008770200087702000800000000FC
:100180007702000877020008DFF80CD000F056FB79
:10019000004800471D350008B04800202C4B196866
:1001A0000868B0E8F04F80F30988BFF36F8F4FF015
:1001B000000080F3118870470000000008480068C4
:1001C000006880F308884FF0000080F3148862B65E
:1001D00061B6BFF34F8FBFF36F8F00DF00BF00BF6B
:1001E00008ED00E0DFF80C00016841F470010160E7
:1001F000704700BF88ED00E0EFF30980BFF36F8F19
:10020000134B1A681EF0100F08BF20ED108A20E96A
:10021000F04F106009B44FF0500080F31188BFF325
:100220004F8FBFF36F8F03F023FE4FF0000080F37A
:10023000118809BC19680868B0E8F04F1EF0100F6B
:1002400008BFB0EC108A80F30988BFF36F8F704746
:1002500058000020EFF305807047000006488047F3
:1002600006480047FEE7FEE7FEE7FEE7FEE7FEE79B
:10027000FEE7FEE7FEE7FEE70D260008890100081D
:100280002DE9F05F0546002092469B4688460646CB
:10029000814640241BE0284641464746224600F05E
:1002A00019F953465A46C01A914110D311461846BF
:1002B000224600F000F92D1A67EB01084F4622464E
:1002C0000120002100F0F7F817EB00094E41201E35
:1002D000A4F10104DFDC484631462A464346BDE826
:1002E000F09F40EA01039B0703D009E008C9121FF1
:1002F00008C0042AFAD203E011F8013B00F8013BE0
:10030000521EF9D27047D2B201E000F8012B491E0B
:10031000FBD270470022F6E710B513460A460446A2
:100320001946FFF7F0FF204610BD421C10F8011BD4
:100330000029FBD1801A704710B5002200E0521C42
:10034000835C8C5CA34201D1002BF8D1D8B2E1B21E
:10035000401A10BD034611F8012B00F8012B002AAA
:10036000F9D1184670472DE9FE4F81EA030404F0E5
:10037000004421F0004100944FF0000B23F00043B3
:1003800050EA01045ED052EA03045BD0C3F30A547E
:10039000C1F30A552C44A4F2F3340194A0FB025497
:1003A000C1F3130141F48011C3F3130343F4801329
:1003B00001FB024400FB034E840A970A44EA81547D
:1003C00047EA8357A4FB076802958D0A05FB07855A
:1003D0004FEA932C04FB0C542705029D4FEA065864
:1003E00047EA1637B5EB08056EEB070C870E920E41
:1003F00047EA811742EA8312A7FB0201B6EB0B0121
:1004000064EB00042B0D43EA0C335E1844EB1C50E4
:10041000DA465146E7FB0201C5F313044FEA0B33FA
:1004200043EA14534FEA0432019C43EA0603A4F161
:100430000C040294009CCDE900B400F06AF803B00B
:10044000BDE8F08F00200146F9E70EB540F23341D8
:1004500002910021CDE900110A460B4600F059F83F
:1004600003B000BD00F0004230F000400AD0C10DE2
:1004700001F56071C0F3160042EA0151C20840075D
:100480001143704700200146704730B50B460146C6
:1004900000202022012409E021FA02F59D4205D323
:1004A00003FA02F5491B04FA02F52844151EA2F1CD
:1004B0000102F1DC30BD202A04DB203A00FA02F10F
:1004C000002070479140C2F1200320FA03F3194342
:1004D00090407047202A04DB203A21FA02F00021E4
:1004E000704721FA02F3D040C2F120029140084344
:1004F0001946704710B5141E73F1000408DA401C49
:1005000041F1000192185B411A4301D120F0010032
:1005100010BD2DE9F04D92469B4611B1B1FA81F222
:1005200002E0B0FA80F220329046FFF7C4FF0446A2
:100530000F4640EA0A0041EA0B0153465A46084377
:1005400013D0114653EA010019D0C8F140025046B9
:10055000FFF7C0FF05460E46504659464246FFF794
:10056000AAFF084305D0012004E020463946BDE833
:10057000F08D0020054346EAE0762C4337430A9885
:100580006305E40AA0EB08000022FD0A44EA475490
:100590000A3002D500200146E9E70105101969413A
:1005A000DDE9084500196941BDE8F04DA2E72DE9F4
:1005B000FE4F804681EA0300C00F0C46009021F0F8
:1005C000004123F00045B8EB0200A94105D24046A6
:1005D000214690461C460B46024623F0004010433D
:1005E00047D0270DC7F30A00C3F30A510290401AFF
:1005F000019040286BDAC3F3130040F4801B00988D
:10060000924620B10023D2EB030A63EB0B0B019857
:100610005946C0F140025046FFF74DFF06460D46D1
:1006200050465946019A00F01BF910EB0800614151
:10063000002487EA115284EAE7731A4340D0009AF3
:1006400062B3019A012A4FEA075215DC001B61EBE5
:1006500002014FF0004202EA0752CDE90042001CBD
:1006600041F5801132462B46FFF753FF03B0BDE83A
:10067000F08F40462146F9E7001B61EB0201001CA8
:1006800041F5801300185B412018A2F5001747EBD5
:10069000030140EAD570B6196D4111E06D084FEACB
:1006A000360645EAC0754FEA0752001B61EB0201AE
:1006B000001C41F5801149084FEA300000195141F2
:1006C00032462B4603B0BDE8F04FFFF713BF00984A
:1006D000012240000023D0EB020263EBE07300989C
:1006E00021464FEAE074B8EB000061EB0401E9E752
:1006F00083F000435BE781F0004158E72DE9F04DBE
:1007000081EA030404F0004B21F0004514464FF049
:10071000000A23F0004150EA050220D054EA010209
:100720001DD0C5F30A570246C5F31303C1F31300E6
:10073000C1F30A5640F4801543F48013A7EB060872
:10074000101BD64608F2FD3873EB050002D308F102
:10075000010801E092185B41B8F1000F03DA0020B4
:100760000146BDE8F08D00204FF480110646844616
:100770000EE0171B73EB050705D3121B63EB050394
:1007800006434CEA010C49084FEA300092185B41DD
:1007900050EA0107EDD152EA030012D082EA0400C8
:1007A00083EA0501084305D0101BAB4106D20122A4
:1007B000002306E000224FF0004302E06FF0010248
:1007C00053101AEB06004CEB085110EB0A0041EBFA
:1007D0000B01BDE8F04DFFF78DBEC1F30A52C1F326
:1007E000130140F2FF3341F480119A4202DA0020F3
:1007F0000146704740F233439A42A2F2334202DC90
:100800005242FFF767BEFFF756BE000030B5041E28
:1008100071F1000404DB4FF00044404264EB01013D
:10082000141E73F1000405DB1C464FF000435242D6
:1008300063EB0403994208BF904230BD064C074D5C
:1008400006E0E06840F0010394E8070098471034A0
:10085000AC42F6D3FFF79CFC38430008584300082D
:10086000202A06DBCB17203A41FA02F043EAE07374
:1008700006E041FA02F3D040C2F120029140084361
:1008800019467047464910B54A6822F440324A601A
:100890004A6843681A434A6001684A6822F48072D1
:1008A0004A6001684A68036942EA03224A600168B3
:1008B0004A6822F040724A6001684A6883681A43B5
:1008C0004A6001688A6822F400628A6001688A6866
:1008D000C3681A438A60816A6FF07062D14201680E
:1008E0008A6822F070628A6001688A680CD0836A24
:1008F0001A438A6001688A6822F040528A6001685F
:100900008A68C36A1A4301E022F040528A60016893
:100910008A6822F002028A6001688A68037E42EADD
:1009200043028A6090F82010002901684A680FD0BD
:1009300042F400624A6001684A6822F460424A60F8
:1009400001684A68174C436A04EB43331A4301E0D9
:1009500022F400624A600168CA6A22F47002CA6224
:100960000168CA6A838B104C04EB03531A43CA62B2
:1009700001688A6822F400728A6001688A6890F8C7
:10098000303042EA43228A6001688A6822F4806239
:100990008A6001688A68406942EA8020886010BDE8
:1009A0000023014000E0FFFF0000F0FFFEE706E04B
:1009B0000021491CC9B20A29FBD3401E80B200287D
:1009C000F6D1704700B585B04FF40060009001206B
:1009D0000190022003906946024800F04BFB05B0ED
:1009E00000BD0000000C02402DE9F0410025174E2B
:1009F0002C464FF400674FF001083946304600F0AE
:100A000031FC0028F9D02820FFF7D1FF39463046C5
:100A100000F028FC01280BD0C4F1070108FA01F00E
:100A20008543641CE4B2082CE7D32846BDE8F08176
:100A30003946304600F016FC0128F9D0C4F1070110
:100A400008FA01F0C0B20543EBE70000000C0240D9
:100A500070B586B00446FFF7B5FF394E4FF4006518
:100A600000222946304600F002FC122000F0B6FABF
:100A700001222946304600F0FAFB1E20FFF797FFBF
:100A80000020CDE90050012002906946304600F078
:100A9000F1FA2946304600F0E5FBE0BB2946304636
:100AA00000F0E0FB0028F9D02946304600F0DAFBE0
:100AB0000128F9D0FFF798FF2070FFF795FF6070CD
:100AC000FFF792FFA070FFF78FFFE070FFF78CFF3A
:100AD0002071FFF777FF01222946304600F0C7FB5F
:100AE0002178627801EBC10000EB011002EB80007D
:100AF00000EE100ADFED130AB8EE400A80EE201A6D
:100B000084ED021AA578E37805EBC50000EB05102B
:100B100003EB800000E011E000EE100A8818E918ED
:100B2000B8EE400A0844C0B280EE201A84ED031AE1
:100B30002179814202D1002006B070BD0120FBE77F
:100B4000000C02400000C842704710B5402000F081
:100B500085FA802000F082FA4FF4807000F07EFA6F
:100B6000BDE810404FF4007000F078BA72B6FEE7AE
:100B700078B50024009490F83C20012A19D0012275
:100B800080F83C200A6807230568092A13D9EE6813
:100B90000A3A02EB420293409E43EE600B788A6869
:100BA0000A3B03EB43039A400368DD682A43DA609B
:100BB00010E0022078BD2E6902EB420293409E4372
:100BC0002E610B788A6803EB43039A4003681D6922
:100BD0002A431A614A681F23072A13D205686E6BDD
:100BE000521E02EB820293409E436E630B790A8889
:100BF0005B1E92B203EB83039A4003685D6B2A434A
:100C00005A6327E005680D2A12D22E6BD21F02EB21
:100C1000820293409E432E630B790A88DB1F92B2B7
:100C200003EB83039A4003681D6B2A431A6311E0A8
:100C3000EE6A0D3A02EB820293409E43EE620B791C
:100C40000A880D3B92B203EB83039A400368DD6A86
:100C50002A43DA62164B0568144A9D4206D10D6894
:100C6000122D03D1556845F48005556005689D42F5
:100C700018D10B68102B01D0112B13D1536843F4FA
:100C800000035360096810290CD10A490A4A09680F
:100C9000B1FBF2F101EB8101490000E0491E009136
:100CA0000029FBD180F83C40002078BD00230140A2
:100CB000002001405400002040420F00006C7047AB
:100CC0000068C06C704770B504004FF0000503D099
:100CD000206C002610B107E0012070BD204600F016
:100CE0001DF8666484F83C60206CC00610D4206C4B
:100CF00020F4885040F0020020642046FFF7C2FD37
:100D00006664206C20F0020040F00100206400E0E6
:100D1000012584F83C60284670BD000010B586B0FF
:100D2000044614216846FFF7F5FA11492068884205
:100D30001CD110480021026842F4807202600068F1
:100D400000F4807005900B481438026842F00102EC
:100D50000260006800F00100059020200090032050
:100D6000CDE901016946044800F084F906B010BDE0
:100D70000020014044380240000002402DE9F041CB
:100D8000044600680D4681684FF0000749050BD501
:100D90008068C00508D5206C40F02000206484F8ED
:100DA0003C700120BDE8F08100F066FA064613E0D1
:100DB000681C11D025B100F05FFA801BA8420BD946
:100DC00020680068800707D4206C40F0040020648D
:100DD00084F83C700320E5E7206800688007E7D5C9
:100DE00021686FF012000860206C40F400702064ED
:100DF0002068816811F0405F13D1217E89B9C16AF2
:100E000011F4700F02D0806840050AD4206C20F4E1
:100E100080702064206CC00403D4206C40F001007A
:100E200020640020BEE7000018B50021009190F872
:100E30003C20012A07D0012280F83C2002689368F8
:100E4000DB0702D011E0022018BD936843F00103D4
:100E500093602E4A2E4B1268B2FBF3F202EB420271
:100E600000E0521E0092002AFBD102689368DB0763
:100E700042D0036C40F20164A34343F480730364E3
:100E800053685B0505D5036C23F4005343F480538A
:100E90000364036CDB0404D5436C23F00603436452
:100EA00000E0416480F83C101A496FF0220313609F
:100EB00049680068CA06184906D0884224D181686A
:100EC00011F0405F13D01FE08842F8D0134A9042DF
:100ED00003D1D1F80423D206F1D0114A904213D1A4
:100EE000D1F8041301F01F011029E8D30CE0816848
:100EF00041F08041816007E0016C41F01001016424
:100F0000416C41F001014164002018BD54000020F3
:100F100040420F0000230140002001400021014019
:100F2000002201402DE9F0410446876D00F0A4F94C
:100F3000064694F835000025022806D0802060651A
:100F400084F834500120BDE8F0812068016821F068
:100F5000160101602068416921F080014161206C27
:100F600008B9A06C20B12068016821F00801016077
:100F70002068016821F0010101600CE000F07CF9BB
:100F8000801B052807D920206065032084F83500E0
:100F900084F83450D7E720680068C007EED194F891
:100FA0005C103F208840B860012084F8350084F848
:100FB00034500020C7E790F83510022903D0802173
:100FC000416501207047052180F8351000680168EF
:100FD00021F00101016000207047000070B5044657
:100FE00000F04AF90546601C02D004480078044429
:100FF00000F042F9401BA042FAD370BD4800002027
:1010000010B5144B144CB0F5007F0DD0B0F5807FB7
:1010100011D0802817D0402814D101221021184661
:1010200000F025F903200CE000220821184600F00A
:101030001EF9002005E001220821184600F017F9EA
:101040000120206010BD00221021184600F00FF989
:101050000220F6E70010024034000020044910B5D9
:101060000A68024202D00860FFF7CAFF10BD000004
:10107000143C01402DE9F84FDFF8BCA10022012506
:101080000AF1040B03264FF00F090BF1040E00BF09
:101090000B6805FA02F42340A34270D10F7907F0E0
:1010A0000307012F01D0022F16D187684FEA4208AB
:1010B00006FA08FC27EA0C07D1F80CC00CFA08FC69
:1010C0004CEA070CC0F808C04768A7430C79C4F382
:1010D000001494403C4344600C79E443A4070AD0D4
:1010E000C4684FEA420C06FA0CF7BC438F6807FA53
:1010F0000CF72743C7600C7904F00304022C12D1CB
:10110000D40800EB840CDCF820405707FF0E09FAE6
:1011100007F824EA0804D1F8108008FA07F848EA2A
:101120000408CCF8208004684FEA420C06FA0CF759
:10113000BC430F7907F0030707FA0CF72743076052
:101140004C6814F4403F70D03C4C276847F480470B
:101150002760246822F0030704F480440094384C8C
:1011600007EB040CDCF8084897074FEA177809FAF0
:1011700008F7BC43334FB84202D1002724E054E0C3
:10118000314FB84201D101271EE0304FB84201D1A2
:10119000022719E02E4FB84201D1032714E02D4F4A
:1011A000B84201D104270FE02B4FB84201D10527E7
:1011B0000AE02A4FB84201D1062705E0284FB8427D
:1011C00001D1072700E0082707FA08F72743CCF8E2
:1011D0000878DAF800405746D1F804C09C435FEA2B
:1011E000CC3C00D51C433C60DBF800405F46D1F8A6
:1011F00004C09C435FEA8C3C00D51C433C60DEF895
:1012000000407746D1F804C09C435FEACC2C00D55F
:101210001C433C60084F0C373C68D1F804C09C4329
:101220005FEA8C2C00D51C433C60521C102AFFF452
:101230002FAFBDE8F88F0000003C01404438024069
:10124000003001400000024000040240000802405B
:10125000000C02400010024000140240001802403E
:10126000001C02400069084000D0012070470AB10C
:10127000816170470904FBE70148806870470000FE
:10128000480000200248816802781144816070475C
:10129000480000200B4810B5016841F4007101605E
:1012A000016841F480610160016841F4807101606E
:1012B000032000F073F80F2000F006F800F024F887
:1012C000002010BD003C024070B50D4D04464FF4A7
:1012D0007A712878B1FBF0F00A490968B1FBF0F0A7
:1012E00000F00EFB48B9102C07D200222146501EF8
:1012F00000F034F800206C6070BD012070BD00006B
:1013000048000020540000200C4882B0016841F4DD
:1013100080410160006800F4804000900748001F91
:10132000016841F0805101600068002200F08050A7
:1013300000900F21901E02B000F010B84438024017
:10134000002809DB00F01F020121914040098000C4
:1013500000F1E020C0F8001170470000F0B40E4B1F
:101360001B680C46C3F30223C3F10705042D00D903
:101370000425191D072901D2002300E0DB1E0126E8
:1013800006FA05F1491E214099409E40761E1640FE
:101390003143F0BC01F09ABB0CED00E0064900F0CF
:1013A000070208684FF6FF03184040EA0220034A8C
:1013B00010430860704700000CED00E00000FA05E3
:1013C0002DE9F0470E46050065D0DFF81481D8F806
:1013D0000000F7B200F00700B04207D288F80070B2
:1013E000D8F8000000F00700B04254D128683D4C06
:1013F000810712D5400703D5206840F4E0502060F3
:101400002878000703D5206840F4604020602068F9
:10141000A96820F0F000084320602878C0072DD08C
:10142000304968680839012812D0022813D00328EF
:1014300011D00968890700292DDA216821F00301FC
:1014400001432160FFF718FF814641F2883A0EE020
:1014500009688903EFE709688901ECE7FFF70CFFEA
:10146000A0EB0901514502D90320BDE8F0872068AF
:10147000696800F00C00B0EB810FEFD1D8F80010D4
:10148000404601F00701B14207D90770006800F03B
:101490000700B04201D00120E7E72878400705D5D2
:1014A0002068E96820F4E0500843206028780007AD
:1014B00006D52068296920F4604040EAC100206018
:1014C00000F038F82168084AC1F30311515CC840A4
:1014D0000649086006480068FFF7F6FE0020C4E7EA
:1014E000003C024008380240084300085400002035
:1014F0004C0000200448054900680968044AC1F30B
:101500008221515CC84070475400002008380240D6
:10151000184300080448054900680968044AC1F3F3
:101520004231515CC84070475400002008380240E6
:1015300018430008154810B5006810F00C02144854
:1015400013D04110042A0FD0082A0ED10F4C241FAB
:101550002268236802F03F025B0207D52068C0F3CF
:101560008810A0FB010106E0084610BD2168C1F308
:101570008811A1FB00010023FEF782FE2168C1F360
:101580000141491C4900B0FBF1F010BD0838024090
:101590000024F4002DE9F84F04006ED02078DFF825
:1015A0004C93C007A9F104054AD009F10400016871
:1015B000C1F38101012908D00068C0F3810002282D
:1015C0000AD1D9F80000400206D52868800337D533
:1015D00060680028E1D033E06068B0F5803F10D04B
:1015E000B0F5A02F286810D020F48030286028683B
:1015F00020F4802028606068A8B1FFF73DFE064611
:101600000DE0286840F48030F4E740F48020286042
:10161000F7E700BFFFF730FE801B642873D8286807
:101620008003F7D50CE0FFF727FE064605E000BF74
:10163000FFF722FE801B6428F0D828688003F7D4C7
:101640002078DFF8AC8280074FF0000A3ED5A7482B
:10165000001D016811F00C0F08D00068C0F3810074
:1016600002280BD1D9F80000400207D4286880076F
:1016700016D5E068012800D112E033E1E068B8B186
:101680000120C8F80000FFF7F7FD064605E000BF9F
:10169000FFF7F2FD801B0228C0D828688007F7D525
:1016A0002868216920F0F80040EAC10028600DE0B8
:1016B000C8F800A0FFF7E0FD064604E0FFF7DCFDF8
:1016C000801B02281FD828688007F7D420780007DD
:1016D00022D5864F87486169703771B10121016059
:1016E000FFF7CAFD064604E0FFF7C6FD801B02288F
:1016F00009D838688007F7D50EE0C0F800A0FFF7DA
:10170000BBFD064605E082E0FFF7B6FD801B022820
:101710007DD838688007F7D42078400768D5DFF88F
:10172000CCB100270BF13C0BDBF80000C0000BD460
:10173000DBF8001041F08051CBF80010DBF800001E
:10174000012700F0805000906B4E3068C00510D427
:10175000306840F480703060FFF78EFD009005E047
:10176000FFF78AFD0099401A022850D83068C0055A
:10177000F6D55E4EA0686C3601280FD0052830687B
:1017800010D020F001003060306820F0040030609C
:10179000A068B8B1FFF770FD00900FE0306840F02E
:1017A0000100F4E740F004003060F7E7FFF764FD64
:1017B0000099411A41F28830814266D8306880072A
:1017C000F4D50EE0FFF758FD009007E0FFF754FD59
:1017D0000099411A41F28830814256D8306880071A
:1017E000F4D42FB1DBF8001021F08051CBF80010B9
:1017F000A069C8B33D49091D0968C1F381010229E7
:101800004AD00228504607D0C8F8600000E03CE00B
:10181000FFF732FD04463BE04746C8F86000FFF79B
:101820002BFD064605E000BFFFF726FD801B0228C2
:101830002BD828688001F7D4D4E907010843A16AAE
:101840002E4A490802EB0141626A41EA82110843CB
:1018500094F82C1040EA0161C9F8001001203866A4
:10186000FFF70AFD044606E03EE000BFFFF704FD77
:10187000001B022809D828688001F7D534E000BF92
:10188000FFF7FAFC001B022802D90320BDE8F88FFD
:1018900028688001F4D427E00128F7D0D9F80000A7
:1018A000E26900F4800191421CD1226A00F03F01FC
:1018B000914217D147F6C071626A0140B1EB821FB5
:1018C00010D1A26A4FF0FF3300F4403103EB520213
:1018D000B1EB024F06D194F82C1000F07060B0EB21
:1018E000016F01D00120D1E70020CFE7043802408A
:1018F00000004742800E4742007000400000FFFF9A
:1019000010B5401EB0F1807F01D3012010BD4FF013
:10191000E02460610F21601701F0D8F80020A06179
:1019200007202061002010BD70B590F83C20012AEE
:1019300032D0012480F83C40022280F83D20036828
:101940005A689D6822F070060A6832435A60134B49
:1019500002689A4214D0B2F1804F11D0104B9A42D3
:101960000ED0104B9A420BD00F4B9A4208D00F4B1F
:101970009A4205D00E4B9A4202D00E4B9A4204D1A5
:10198000496825F080031943916080F83D400021AB
:1019900080F83C10084670BD022070BD0000014078
:1019A0000004004000080040000C0040000401401A
:1019B000004001400018004010B5040003D094F826
:1019C0003D0010B107E0012010BD002084F83C006C
:1019D000204600F01FF8022084F83D00211D2068F9
:1019E00000F01CFE012084F8460084F83E0084F8D4
:1019F0003F0084F8400084F8410084F8420084F8F5
:101A0000430084F8440084F8450084F83D00002039
:101A100010BD000008B500680649884208D1064894
:101A2000016841F010010160006800F010000090B2
:101A300008BD0000001000404038024090F83D1002
:101A4000012901D001207047022180F83D10006873
:101A50001149884214D0B0F1804F11D00F4988420B
:101A60000ED00F4988420BD00E49884208D00E494B
:101A7000884205D00D49884202D00D49884204D1E0
:101A8000816801F00701062903D0016841F00101D6
:101A90000160002070470000000001400004004089
:101AA00000080040000C00400004014000400140DC
:101AB0000018004001680A6A41F211131A4207D166
:101AC0000A6A9B101A4203D10A6822F001020A60D6
:101AD000012180F83D1000207047704770470000DA
:101AE000F8B5016804460868CA684B6910F00F0F22
:101AF0004FF0000559D003F0010602F49077374308
:101B000065D0C10705D0D10503D5216C41F0010195
:101B10002164410705D5D90703D0216C41F00201AA
:101B20002164810705D5D90703D0216C41F0040158
:101B30002164010707D502F02001314303D0216C55
:101B400041F008012164216C00293AD0800604D5B7
:101B5000900602D5204600F000FE20684069216C06
:101B6000C0F38010090700D460B3204600F0CEFD1A
:101B700020684069400621D52068143050E8001FD5
:101B800021F0400140E80012002AF5D1A06BA8B175
:101B90006C490165A06BFFF70EFA002811D0A06B0D
:101BA000016D01B0BDE8F040084783060FD59306EC
:101BB0000DD52046BDE8F84000F0CFBD2046FFF728
:101BC0008DFFF8BD2046FFF789FF2564F8BD266B21
:101BD0002023012E79D1C60677D5D60675D508689B
:101BE000486800904869400640D5A16B0868406885
:101BF0000004000CEAD0A28D8242E7D9E085C869D2
:101C0000B0F5807F2DD020680C3050E8001F21F403
:101C1000807140E80012002AF5D12068143050E8A5
:101C2000001F21F0010140E80012002AF5D12068D0
:101C3000143050E8001F21F0400140E80012002A53
:101C4000F5D184F83E30256320680C3050E8001F41
:101C500021F0100140E80012002AF5D1A06BFFF737
:101C600061F9A08DE18D401A81B229E0A08DE18D4E
:101C7000401A81B2E08D0028A8D00029A6D02068A3
:101C80000C3050E8002F22F4907240E80026002E1D
:101C9000F5D12068143050E8002F22F0010240E80E
:101CA0000026002EF5D184F83E30256320680C30E4
:101CB00050E8002F22F0100240E80023002BF5D15D
:101CC0002046FFF70AFFF8BDFFE705062BD51506EE
:101CD00029D594F83D002128F5D1A068B0F5805FA2
:101CE00001D12069B0B1206A411C216221680078CD
:101CF0004860E08C401E0004000CE084E3D12068C2
:101D0000C16821F08001C1602068C16841F04001D4
:101D1000C160D8E7206A0088C0F308004860206AE4
:101D2000801C2062E5E74006CDD55006CBD5CA68B9
:101D3000204622F04002CA6084F83D3000F053F99A
:101D4000C1E70000FD26000870B5040004D094F837
:101D50003D00002510B106E0012070BD84F83C5024
:101D6000204600F023F8242084F83D002068C16854
:101D700021F40051C160204600F050FD2068016947
:101D800021F4904101612068416921F02A014161FB
:101D90002068C16841F40051C1602564202084F8A6
:101DA0003D0084F83E00002070BD0000F0B587B013
:101DB000044614216846FEF7ADFA45494348D4F875
:101DC00000C00023424A10390324022501270826B7
:101DD00084451ED1106840F400201060106800F4A3
:101DE00000200590086840F00100086008688DE850
:101DF000B00000F00100CDE9046069460394354865
:101E0000FFF738F9002205213420FFF7A7FA342024
:101E100033E0DFF8C4E03148F44532D1136843F4CD
:101E200080131360126802F4801205920A6842F06F
:101E300004020A600A6802F0040205920A6842F08D
:101E400008020A60096801F00801059181148DE813
:101E5000A200CDE903466946FFF70CF904208DE89E
:101E6000A100CDE9034669461D48FFF703F90022AA
:101E700005213520FFF772FA3520FFF761FA07B028
:101E8000F0BD184A9445FAD1114A121D176847F05F
:101E900020071760126802F0200205920A6842F0DB
:101EA00004020A60096802AA01F004010591C02138
:101EB000CDE9001582E858006946FFF7DBF80022FB
:101EC00005214720FFF74AFA4720D6E7004C00409B
:101ED000403802400000024000500040000802402C
:101EE000000C02400014014090F83E30202B0ED12F
:101EF00059B152B190F83C30012B08D0012380F841
:101F00003C300023036300F00FBD01207047022026
:101F10007047000000680549884201D100F064BDA7
:101F20000349884201D101F059BA7047004C004082
:101F3000001401402DE9F843044690F83D001F4687
:101F400016460D4620284CD1C5B1BEB194F83C00D0
:101F5000012846D0012084F83C004FF00008C4F866
:101F60004080212084F83D00FFF786F9A684814651
:101F7000E684A068B0F5805F03D004E00120BDE8EE
:101F8000F883206928B12E465FF0000584F83C8074
:101F90000EE00026FAE78021204600F0E0FCA0B920
:101FA000AEB116F8010B21684860E08C401EE08459
:101FB000E08C4B464FF0000200970028EBD14FF029
:101FC0004001204600F0CBFC30B10320D7E735F8C4
:101FD000020BC0F30800E6E7202084F83D00002053
:101FE000CDE70220CBE77047FEE7000070B5012285
:101FF000154D1602002431462846FFF738F90A200D
:1020000001F02CFA002231462846FFF730F98021F2
:102010002846FFF727F90028F9D003E00A2001F04D
:102020001DFA641C80212846FFF71CF90128F5D011
:102030006008FEF70AFA9FED051B53EC112BFEF723
:1020400092F941EC100B70BD00100240C3F5285C02
:102050008FC2D53F7FB500241448009401940294A8
:1020600011490394C0E9001484600461047680F887
:1020700020400F49C0E90A140125C561C46080F8F9
:1020800030404561FEF71FFE08B1FEF76FFD0520E9
:10209000CDE90005694602940448FEF769FD002871
:1020A00001D0FEF763FD7FBD0020014064060020E3
:1020B0000100000F10B58EB01C220B496846FEF7D8
:1020C00010F90021684601F052FA084C06491C221A
:1020D00020601C3107A8FEF704F9002107A801F0D1
:1020E00046FA60600EB010BDD042000838000020F3
:1020F0002DE9F04387B014216846FEF70BF94948F3
:102100000024016841F010010160016801F0100134
:102110000591016841F020010160016801F0200192
:102120000591016841F080010160016801F08001C2
:102130000591016841F001010160016801F00101B0
:102140000591016841F040010160016801F0400122
:102150000591016841F004010160016801F004018A
:102160000591016841F00801016000682E4F00F000
:1021700008000590012218213846FFF778F801225F
:10218000DFF8A880960331464046FFF770F800223A
:10219000B1113846FFF76BF8DFF8949000228021E8
:1021A0004846FFF764F8012251024846FFF75FF8FE
:1021B0004FF48C7000900125CDE9015469463846F2
:1021C0000394FEF757FF4FF4707000903801CDE98B
:1021D000010569464046FEF74DFFCDE90065CDE9B2
:1021E000025469464046FEF745FF8020CDE90004D1
:1021F000694638460294FEF73DFF4FF42070009088
:10220000CDE90154694648460394FEF733FF0022A6
:1022100005211720FFF7A2F81720FFF791F807B064
:10222000BDE8F08330380240001002400014024044
:10223000001802401CB500240E4800940C4901947B
:1022400001603F21C0E901144FF6FF718461C16054
:10225000FFF7B2FB08B1FEF789FC00946946054818
:102260000194FFF761FB002801D0FEF77FFC1CBD45
:1022700000100040AC0600200C4810B50A4901606F
:102280004FF4E1314160002181600C22C160C0E95E
:1022900004128161C161FFF757FD002803D0BDE83A
:1022A0001040FEF763BC10BD004C0040F406002057
:1022B0000C4810B50A4901604FF4E131416000213A
:1022C00081600C22C160C0E904128161C161FFF725
:1022D0003BFD002803D0BDE81040FEF747BC10BD11
:1022E00000500040380700200C4810B50A49016032
:1022F0004FF416514160002181600C22C160C0E999
:1023000004128161C161FFF71FFD002803D0BDE801
:102310001040FEF72BBC10BD001401407C070020CC
:10232000FEE7FEE740F20777454C464DDFF818819F
:10233000DFF818A14FF0FF364FF40079384601F06E
:102340000AF9206810B101280ED104E0686801F094
:1023500039F9002203E0686801F04EF901220821F2
:102360004046FEF784FF266039493AA000F08AFB18
:1023700037493FA0FDF7E0FF78B135493EA0FDF7B2
:10238000DBFF88B132493EA0FDF7D6FF98B1304956
:102390003DA0FDF7D1FFA8B11CE000224946504600
:1023A000FEF765FF3AA013E0012249465046FEF7CA
:1023B0005EFF38A00CE0012280215046FEF757FF57
:1023C00035A005E0002280215046FEF750FF33A0E3
:1023D00001F026F8324801F067F83148FDF7A5FF13
:1023E000022807D02E4800F03DFB2D492DA000F01B
:1023F00049FBA3E72A4926A0FDF79EFF78B12849AB
:1024000024A0FDF799FF60B1254923A0FDF794FFB3
:1024100050B1234921A0FDF78FFF38B10BE0002216
:1024200000E00122494603E0012200E00022802171
:102430005046FEF71CFFC8211948FDF76BFF7DE7EA
:102440003400002038000020001002400018024034
:10245000C400002077696669BDD3CAD5B5BDB5C4CF
:10246000CAFDBEDDCEAAA3BA25730D0A0000000086
:102470004F4C454400000000434C45440000000020
:102480004F42454550000000434245455000000082
:102490004F4C0000434C00004F42000043420000FC
:1024A000C0030020CED2B7A2CBCDB5C4CAFDBEDDDD
:1024B000CEAAA3BA2573000086B01E4C606801F056
:1024C0009BF8DFF87490A0464FF47A7A1A48FEF72A
:1024D000BFFA5446504601F03EF8FFF787FD88EDFD
:1024E000020B204601F037F84C46D9F80C00FDF7F6
:1024F000B9FF06460F46A068FDF7B4FF0D46044637
:1025000000F0E6FF009002A80CA180E8F00098ED32
:10251000020B094853EC102B803800F0C3FA064830
:10252000803800F07DFF04490AA0803900F0AAFA43
:10253000CCE70000380000200004002023232C25D5
:102540002E32662C25642C252E31662C252E3166E4
:102550002C242400636332353330206973202573C3
:102560000000000010B5FEF78DFE01F097FD012878
:1025700003D0BDE8104001F023BD10BD30B593B0CD
:1025800030216846FDF7C6FE14210CA8FDF7C2FEF7
:102590001C480025016841F080510160006800F08E
:1025A000805011901848016841F480410160006832
:1025B000022400F48040119001200090000401905A
:1025C0008001CDE9064008AA0420402182E81300DA
:1025D0000B906846FEF7DEFF08B172B6FEE70CA965
:1025E0000F2081E831004FF48050CDE90F05022122
:1025F0000CA8FEF7E5FE002801D072B6FEE713B086
:1026000030BD0000403802400070004002480168C0
:1026100041F470010160704788ED00E0F0B5026898
:10262000254C264D264E274F274B4FF0804CA0427D
:1026300009D0604507D0A84205D0B04203D0B842C7
:1026400001D0984204D122F0700E4A6842EA0E028C
:10265000A0421BD0604519D0A84217D0B04215D077
:10266000B84213D0984211D0184DA8420ED0184D40
:10267000A8420BD0174DA84208D0174DA84205D04C
:10268000164DA84202D0164DA84203D122F440753F
:10269000CA682A434D6922F080022A4302608A6890
:1026A000C2620A688262A04201D0984201D10969DF
:1026B000016301214161F0BD0000014000040040C0
:1026C00000080040000C00400004014000400140B0
:1026D000004401400048014000180040001C004038
:1026E000002000400148FFF7FBB90000F40600207D
:1026F0000148FFF7F5B900003807002010B5806BDE
:102700000021C185C184FFF7E9F910BD01680C31D2
:1027100051E8002F22F4907241E80023002BF5D1FC
:102720000168143151E8002F22F0010241E8002332
:10273000002BF5D1016B012909D101680C3151E859
:10274000002F22F0100241E80023002BF5D12021B8
:1027500080F83E1000210163704708B590F83E10E4
:10276000222901D0022008BD82684FF480539A428A
:1027700001D1016921B1816A9A421BD04AB10AE0B4
:102780000268816A5268C2F308020A80816A891C61
:1027900008E0026972B10268526802F07F020A70B2
:1027A000816A491C8162C18D491E0904090CC185D9
:1027B00003D019E002685268F1E70168CA6822F0A4
:1027C0002002CA600168CA6822F48072CA60016887
:1027D0004A6922F001024A61202180F83E10016B13
:1027E000012903D0FFF796FB002008BD00210163FB
:1027F00001680C3151E8002F22F0100241E800235B
:10280000002BF5D101680A68D20602D50A6849682A
:102810000091818DFFF761F9E6E7000070B504468D
:1028200000680169E26821F44051114301612169A6
:10283000A068E26908436169114308432168CA68D6
:1028400049F20C639A430243CA6020684169A26955
:1028500021F440711143416131492068884202D01E
:102860003049884202D1FEF755FE01E0FEF742FEF4
:10287000E2690023192164253226B2F5004F62680F
:1028800028D0A0FB0101930F9200FDF7F9FC01464F
:10289000B0FBF5F06FF01802504301EB800006EB3F
:1028A0000010B0FBF5F000F0F002B1FBF5F002EB28
:1028B0000012B1FBF5F06FF01803584301EB8000F4
:1028C00006EB0010B0FBF5F000F00F00216810449B
:1028D000886070BDA0FB010192185B41FDF7D0FC40
:1028E0000146B0FBF5F00201B1FBF5F06FF0180303
:1028F000584301EB800006EBC000B0FBF5F000F0A0
:10290000F80002EB4002B1FBF5F0584301EB800008
:1029100006EBC000B0FBF5F000F00700D6E70000C2
:10292000001001400014014081628285C2850021AF
:102930000164222280F83E2080F83C100168CA68B9
:1029400042F48072CA6001684A6942F001024A6139
:102950000068C16841F02001C160002070472DE986
:10296000F041984617460E460446069D27E0681C2F
:1029700025D02DB1FEF780FCA0EB0800A8421ED99F
:1029800020680C3050E8001F21F4D07140E800129C
:10299000002AF5D12068143050E8001F21F0010111
:1029A00040E80012002AF5D1202084F83D0084F888
:1029B0003E00002084F83C000320BDE8F081206840
:1029C000006836EA000004D00020B842CFD00020D2
:1029D000F3E70120F9E700000148FFF781B80000A4
:1029E0007C070020FEE7000070B5194C194B254606
:1029F0002678B5F90200411C0AB26978072E04D87E
:102A000009B119540BE0002013E0232910D0242928
:102A100015D0451EC72D03D2184400F8011C628052
:102A2000BDE870400A490122491C0B48FFF75CBA17
:102A300001206080C8210748FDF76CFCF0E70549DC
:102A400006A000F01FF84FF0FF306080E8E70000BC
:102A500000000020C4000020F406002025730D0AA9
:102A60000000000010B50446FDF75FFC214682B26D
:102A7000BDE810404FF47A730148FFF75BBA0000DD
:102A8000F40600200FB4054B10B503A9044A0298C0
:102A900000F0FEF810BC5DF814FB00008D34000857
:102AA000C00000200FB4084B10B504A902AA039877
:102AB00000F0EEF8044602A9002000F080FC204659
:102AC00010BC5DF814FB0000BF3300080907090EB5
:102AD000002804DB00F1E02080F80014704700F0CB
:102AE0000F0000F1E02080F8141D704702E008C8D4
:102AF000121F08C1002AFAD170477047002001E078
:102B000001C1121F002AFBD1704700002DE9FF5FB1
:102B100082B00021DDE90430020DDDF840B003434E
:102B200018D044F61050A2F2FF3242431514119807
:102B300001281FD0A5EB0B00401C5FEA000A4FF0F4
:102B400000064E4FDFF83891B046504615D5CAF111
:102B5000000413E0119801244AA3012801D16FEA6F
:102B60000B010298119AC0E90031C0E9024206B097
:102B7000BDE8F09FCBF10000DFE704460021404AAA
:102B8000491842EB0450CDE9001012E0E00707D0ED
:102B900032463B4640464946FDF7E5FB80468946BE
:102BA00032463B4610461946FDF7DDFB06460F460A
:102BB0006410002CEAD1DDE90401DDE90023BAF15B
:102BC000000F06DAFDF7CFFB42464B46FDF7CBFB85
:102BD00005E0FDF793FD42464B46FDF78FFD0446A9
:102BE0000E460022284BFDF711FE03D84FF0FF30B0
:102BF000014607E00022254B20463146FDF7D7FC71
:102C0000FDF7EBFD102409E0002C0ADB0A2200236B
:102C1000FDF736FB039B30321A55641E50EA010261
:102C2000F2D1641C039AC4F111031444119A012ACD
:102C300003D0012208430DD10AE0084304D000204C
:102C40004FF0110B119072E7A3EB0B056D1E0DE019
:102C50005B4504DD4FF0000205F1010504E003DAF5
:102C60004FF00002A5F10105002AECD0029811995D
:102C7000C0E90231C0E9004579E7000000001440D6
:102C80000000F03F300000000000F0430000E03F93
:102C90002DE9FF4F95B09B468946064600250FE279
:102CA000252877D100242746F84A0121059400E021
:102CB000044316F8013F203B01FA03F01042F7D11C
:102CC00030782A2811D06FF02F033078A0F130022D
:102CD000092A16D8059A44F0020402EB820203EB9B
:102CE00042021044761C0590EFE759F8042B059238
:102CF000002A03DA504244F40054059044F00204E0
:102D0000761C30782E2816D116F8010F44F00404F2
:102D10002A280DD06FF02F023078A0F13003092B54
:102D200009D807EB870302EB4303C718761CF3E7C8
:102D300059F8047B761C30786C280FD006DC4C28C0
:102D400017D068280DD06A2814D104E0742810D058
:102D50007A280FD10DE044F400140AE044F4801402
:102D600001E044F440147278824202D104F58014E8
:102D7000761C761C307866280BD013DC582877D068
:102D800009DC002875D04528F6D04628F4D047281D
:102D90001AD19DE118E0632835D0642879D06528E0
:102DA00012D195E1702873D008DC6728F1D069282A
:102DB0006FD06E280DD06F2806D1B5E073282CD0C7
:102DC000752875D0782874D05A46179990476D1C8D
:102DD00075E1C4F30250022809D003280DD0D9F8B8
:102DE000001004280DD00D6009F1040967E1D9F83D
:102DF0000010EA17C1E90052F6E7D9F800100D807B
:102E0000F2E70D70F0E719F8041B8DF800100020B0
:102E10008DF80100EA46012003E059F804AB4FF0B9
:102E2000FF3061074FF0000102D40DE008F101010D
:102E30008846B9420FDA8045F8DB1AF808100029F5
:102E4000F4D108E008F1010188468142FADB1AF862
:102E500008100029F6D105985B46A0EB080721462B
:102E60003846179A00F094FA284400EB080507E06A
:102E70004DE029E10DE01AF8010B5A4617999047E9
:102E8000B8F10108F7D25B4621463846179A13E19C
:102E900042E00A220092C4F302524FF0000A022AD2
:102EA00008D059F804CB032A4FEAEC710AD00DE0A0
:102EB00029E02AE009F1070121F00702F2E802C146
:102EC000914609E00FFA8CFC4FEAEC71042A03D119
:102ED0004FFA8CFC4FEAEC71002907DA0A46002110
:102EE000DCF1000C61EB02012D2202E0220504D589
:102EF0002B228DF80420012203E0E20701D02022DA
:102F0000F7E7904659E00A2102E010220DE0102177
:102F10004FF0000A00910BE010224FF0000A44F03D
:102F200004040827009203E008224FF0000A0092F0
:102F3000C4F30252022A05D059F804CB0021032A17
:102F400008D009E009F1070121F00702F2E802C107
:102F5000914605E01FFA8CFC042A01D10CF0FF0C0D
:102F60004FF00008220728D5702806D0009B83F078
:102F7000100353EA0A0305D00EE040228DF8042026
:102F8000012208E05CEA010206D030228DF804201C
:102F90008DF8050002229046009B83F0080353EA57
:102FA0000A030AD15CEA010201D1620705D5302289
:102FB0008DF804204FF001087F1E582804D034A05B
:102FC00003900EA802900DE036A0F9E75346604644
:102FD000009AFDF755F984460398825C0298401EDA
:102FE000029002705CEA0100F0D1029806A9081A6A
:102FF00000F1200A600702D524F4803400E00127A4
:10300000574502DDA7EB0A0000E0002000EB0A01B3
:10301000009005984144401A0590E00306D45B46B1
:103020002146179A059800F0B3F90544002706E0F9
:1030300001A85A46C05D179990476D1C7F1C4745F3
:10304000F6DBE0030CD55B462146179A059800F0A5
:103050009FF9054404E030205A46179990476D1CAB
:103060000099481E00900029F5DC08E002980299BA
:103070005A460078491C0291179990476D1CBAF185
:103080000001AAF1010AF1DC65E100000928010054
:1030900030313233343536373839616263646566CE
:1030A0000000000030313233343536373839414290
:1030B000434445460000000000F058F90544761CE2
:1030C000307800287FF4ECAD19B02846BDE8F08FC9
:1030D000620700D4062709F1070222F0070CFCE87A
:1030E0000223E14603F000485FEA080C02D00FF229
:1030F000702C0DE05FEA045C02D50FF2682C07E04B
:103100005FEAC47C02D00FF2602C01E0AFF2700CD9
:103110004FF0FF3823F00043CDF850C065280CD0A5
:1031200006DC452809D046281DD047283DD13DE082
:10313000662818D067287ED138E00021112F01DBE6
:10314000112000E0781CCDE9000106A90EA8FFF7C8
:10315000DDFCDDE90F010E9A03910021009207F1D9
:10316000010A04914DE04FF000400097CDE90110B5
:1031700006A90EA8FFF7CAFCDDE90F0203920E9B19
:1031800011990022DDF80CA00093049211B9791C6A
:1031900000EB010AB7EB0A0004D4C0F1FF3007F1DD
:1031A000010A0490AAEB0700019044E0012F00DA25
:1031B00001270021112F01DD112000E03846CDE963
:1031C000000106A90EA8FFF7A1FCDDE90F010E9A88
:1031D0000391002104910092BA4621070CD403996F
:1031E000514500DA8A46BAF1010F05DD009AAAF1CD
:1031F0000101515C302908D0B84202DA10F1040F05
:1032000006DA0121CDE9011015E0AAF10101E9E793
:10321000002805DC049901440491AAEB000102E0B6
:10322000411C514500DD8A460499401A401C01901A
:103230004FF000400290200704D40198504501DB74
:10324000CDF8048000208DF84F0002980DF14F0753
:10325000B0F1004F25D02B200E9002984FF00208BD
:1032600000280CDA404202902D200E9007E00A213F
:103270000298FDF70AF93031029007F8011DB8F104
:103280000001A8F10108F2DC02980028EFD1791EB4
:103290000E980870307800F0200040F0450007F8E4
:1032A000020D12A8C01B00F107081498007800B1A5
:1032B000012000EB0A01019801EBE07105984144FF
:1032C000401A401E0590E00306D45B462146179A3B
:1032D000059800F05DF805441498007818B15A4636
:1032E000179990476D1CE00324D55B462146179A39
:1032F000059800F04DF805441CE00498002807DB11
:10330000DDE90301884203DD0098405C179901E084
:10331000179930205A469047049805F10105401C42
:1033200004900198401E019004D12E205A4617990E
:1033300090476D1CBAF10001AAF1010ADDDC05E03D
:1033400017F8010B5A46179990476D1CB8F1000108
:10335000A8F10108F4DC5B462146179A0598ABE614
:103360002D0000002B000000200000002DE9F0419E
:10337000044600251E461746880404D405E0394655
:103380002020B0476D1C641EF9D52846BDE8F081A9
:103390002DE9F041044600251E469046C80301D59C
:1033A000302700E02027880404D505E04146384650
:1033B000B0476D1C641EF9D52846BDE8F0810A6847
:1033C000531C0B6010707047012202490248FEF73F
:1033D0008BBD00002C0000207C0700200D4801213F
:1033E0000278232A0AD0242A0ED041784B1E7F2B44
:1033F00005D8094B0B44491C03F8012C41700122EC
:1034000004490648FEF770BD4268002AF7D14160C2
:103410000021F3E72C0000208C0100207C07002015
:1034200010B58EB0044634216846FCF773FF22467F
:1034300007A16846FFF736FB6846FCF776FF82B2C5
:103440004FF47A7369460448FEF774FD0EB010BD60
:1034500023257324000000007C07002070B54FF680
:10346000FA75281A84B20848FEF7E8FA0648016897
:103470004C62006801E0416A8CB2AC42FBD3BDE80B
:1034800070400148FEF716BBAC06002038B5044674
:103490008DF800000223012269460248FEF74AFD2A
:1034A000204638BD3807002010B5074C6168012957
:1034B00009D10649FCF74EFF4FF4FA710348FCF7B7
:1034C00029FF0020606010BD2C0000208C0100202E
:1034D00010B500240D48FDF7A7FC32210B48FDF77D
:1034E0004DFC0A48FDF7EAFB80050CD50748FDF7BF
:1034F000E7FB40F6E4414843C11700EB11500013CD
:10350000A0F6E4404442A0B210BD000064060020D2
:10351000EFF30580002800D001207047FDF7BAFEC8
:10352000FFF72CF8FEF7E4FDFEF7A6FEFEF7C0FE5F
:10353000FEF7DAFEFEF78EFDFEF77CFEFFF744FF96
:10354000FEF7B8FD00F00EF8FEE7014600208429E2
:1035500000D0C81C704710B500B9012000F088FBEE
:10356000002010BD10B500F0E7FB002010BD7FB5B6
:103570000D4604464169B0F9080081B1A16971B1F5
:10358000FFF7E3FFD4E905128DE80700D4E9001046
:103590002B46226900F057FD039004B070BDFFF781
:1035A000D4FF03A9CDE90001208A2B4682B2D4E9D9
:1035B000001000F01BFD012801D00020EDE703986A
:1035C000EBE7000010B50446FFF7A2FF00282046F5
:1035D0000BD000F039FE012809D106490007086028
:1035E000BFF34F8FBFF36F8F01E000F067FB002048
:1035F00010BD000004ED00E010B500F0D3FB00208A
:1036000010BD00002DE9F041184C0F460546E66854
:103610002068001D00F03AFA38B9206890F82C10A4
:1036200001208840216981432161681C07D137B19D
:103630002168BDE8F0410E48091D00F06BBA206812
:103640003544B5424560216805D2A06BBDE8F04124
:10365000091D00F047BA606B091D00F043FAA06A2B
:10366000854200D2A562BDE8F0810000580000202C
:103670009C0800202DE9F041054600F057FA2E4C39
:10368000A068401CA06020682C4F10B1606940B356
:103690002DE02560A068012829D1002606EB8600D0
:1036A00007EB800000F010FA761C072EF6D32348B3
:1036B0008C3000F009FA2148A03000F005FA1F48CC
:1036C000B43000F001FA1D48C83000F0FDF91B4885
:1036D000DC3000F0F9F919488C3060631430A063D5
:1036E00005E02068E96AC06A884200D82560606AFF
:1036F000401C6062E96A0120226988401043206111
:1037000001EB810007EB8000291D00F003FA00F0B7
:103710002DFA606900280CD02068E96AC06A8842E6
:1037200007D207494FF080500860BFF34F8FBFF3B7
:103730006F8FBDE8F081000058000020C007002016
:1037400004ED00E010B5044690F8510058B101288E
:103750000CD002280FD0502080F31188BFF34F8F78
:10376000BFF36F8FFEE7206B00F014FA2046BDE830
:10377000104000F00FBA10BD10484FF470514207CE
:1037800006D0C01D0D4920F00700411AC1F5705147
:103790000B4A00230144C2E900030839183A21F01A
:1037A000070111604B600B600B1AC0E900139360B6
:1037B0004FF000405360506170470000B008002097
:1037C000AC000020144E154CA6F1C8074FF08058ED
:1037D000DFF84C9012E000BF00F0A8F9F068C5686F
:1037E000281D00F053F9A068401EA0606068401ECC
:1037F000606000F0BBF92846FFF7A4FF606800286E
:10380000EAD138680128F9D9C9F80080BFF34F8F91
:10381000BFF36F8FF2E700008808002058000020F7
:1038200004ED00E02DE9F0479A46DDE90984814680
:103830006FF00303206B03EB82021044089E20F01C
:103840000707780707D0502080F31188BFF34F8F08
:10385000BFF36F8FFEE7002561B1002023180A5CDB
:1038600083F834200A5C12B1401C1028F6D384F887
:10387000435001E084F83450072E00D30626E66258
:10388000C4E91165201D00F02AF904F1180000F0C8
:1038900026F92461C6F107006462A061E56484F83A
:1038A000505052464946384600F0DAF82060B8F1E8
:1038B000000F01D0C8F80040BDE8F08730B51149CD
:1038C00000E011460A688242FBD34B685C188442D0
:1038D00003D1406818444860084643681C18944265
:1038E00009D1084C183C2468A24209D052681A44F5
:1038F00042600A6812680260814200D0086030BDF0
:103900000460F9E7AC0000200648416B096829B162
:10391000416BC968C9684968816270474FF0FF31DF
:10392000FAE700005800002008484068401C4FF0AB
:10393000500080F3118804D0BFF34F8FBFF36F8F17
:10394000FEE7BFF34F8FBFF36F8FFEE7B400002099
:10395000002150B10A4B42699A420FD1806AA3F10B
:10396000280290420AD040B108E0502080F311882C
:10397000BFF34F8FBFF36F8FFEE7012108467047FB
:103980009C0800202DE9F0410546002700F068FA68
:10399000324E306808B9FFF7EFFE706905424ED12C
:1039A000C5B3083568070ED005F00700C0F1080060
:1039B0000544680707D0502080F31188BFF34F8F6C
:1039C000BFF36F8FFEE72DB37068854237D8234869
:1039D000183001460C6801E020460C466168A94297
:1039E00002D221680029F7D131688C4227D00768BC
:1039F0002168016060680837411B10290FD96019E0
:103A0000420708D0502080F31188BFF34F8FBFF3D7
:103A10006F8FFEE713E041606560FFF74FFF61685D
:103A20007068401A7060B268904200D2B0607069ED
:103A300001430020C4E90001F068401CF06000F080
:103A4000A1FB780707D0502080F31188BFF34F8F78
:103A5000BFF36F8FFEE73846BDE8F0819400002089
:103A600010B5031F4FF080741C601B1F21F0010173
:103A70001960191F044B0B6014390A60091F6FF09D
:103A8000020244380A6010BD29390008D0E9013229
:103A900001699A60D0E901235A604A68824201D1E3
:103AA00082684A60002202610868401E0860086857
:103AB00070470000034B036003F15400086080204E
:103AC000106070471004002000F108014FF0FF3231
:103AD000C0E90112C160016100210160704700214D
:103AE0000161704730B50B685A1C02D000F1080222
:103AF00002E0026904E02246546825689D42FAD932
:103B000053684B6099608A60516008610168491C84
:103B1000016030BD42684A6093688B609368596069
:103B2000916008610168491C01607047502080F372
:103B30001188BFF34F8FBFF36F8F0A494868401C4D
:103B4000486001280CD10848006810F0FF0F07D02A
:103B5000502080F31188BFF34F8FBFF36F8FFEE7C4
:103B600070470000B400002004ED00E008494868F8
:103B700028B1401E486001D180F311887047502061
:103B800080F31188BFF34F8FBFF36F8FFEE7000004
:103B9000B400002070B500282AD0164DA0F108040A
:103BA00060686969084207D1502080F31188BFF32B
:103BB0004F8FBFF36F8FFEE722683AB1502080F33A
:103BC0001188BFF34F8FBFF36F8FFEE788436060AC
:103BD00000F046F960686968084468602046FFF7AD
:103BE0006DFE2869401C2861BDE8704000F0CABA2B
:103BF00070BD0000940000204FF0E0200021016122
:103C0000816105494FF47A720968B1FBF2F1491EEE
:103C100041610721016170475400002010B5FCF795
:103C200019FB114910280ED300F1E02090F8F003A1
:103C30000A78904207D2502080F31188BFF34F8F4B
:103C4000BFF36F8FFEE709480068896800F4E06001
:103C5000884207D9502080F31188BFF34F8FBFF3FC
:103C60006F8FFEE710BD0000B40000200CED00E0F7
:103C700010B5020014D00F48006B38B1502080F30B
:103C80001188BFF34F8FBFF36F8FFEE700F0E8F8A6
:103C900000211046FFF7B6FC00F074FA002807D1A7
:103CA00005494FF080500860BFF34F8FBFF36F8F0F
:103CB00010BD00005800002004ED00E070B50400C5
:103CC0002BD01A4D286884422FD0FFF72FFF2046B3
:103CD000FFF73EFEE8B1201DFFF7D8FEE06A0121A4
:103CE0002A69814011432961114900EB800001EBF1
:103CF0008000211DFFF70EFFE06A2968C96A88422B
:103D000007D30C494FF080500860BFF34F8FBFF3CB
:103D10006F8FBDE87040FFF729BF502080F31188F6
:103D2000BFF34F8FBFF36F8FFEE770BD58000020C9
:103D3000C007002004ED00E010B586B00024039415
:103D400005AA04A903A80494FFF7B4FEDDE9030162
:103D50000094CDE9011000230EA11048059A00F04F
:103D600072F90F490028C86211D0502080F31188E1
:103D7000BFF34F8FBFF36F8F4FF0FF30886201208A
:103D80004861CC6006B0BDE8104000F09FB806B0B6
:103D900010BD000049444C4500000000C537000834
:103DA0005800002070B50446FFF7C0FE294D04B945
:103DB0002C68201DFFF76AFE58B9E06A264A00EB1E
:103DC000800152F8211021B90121814028698843DE
:103DD0002861A06A18B104F11800FFF757FE1E48C9
:103DE000211DDC30FFF796FE94F8500000260128D4
:103DF00001D184F85060FFF7B9FE686928B1FFF778
:103E000095FEFFF781FDFFF7B1FE2868844213D1CC
:103E1000686990B1286B38B1502080F31188BFF3E6
:103E20004F8FBFF36F8FFEE70C494FF08050086053
:103E3000BFF34F8FBFF36F8F70BD0748DC30006852
:103E4000A968884201D12E6070BDBDE8704000F0C5
:103E50000FB8000058000020C007002004ED00E06B
:103E60000248016B491C01637047000058000020A4
:103E70001448016B11B10121C16170470021C1617A
:103E80000169B1FA81F1C1F11F0101EB81020E4913
:103E900051F822306BB101EB820101F108034A684D
:103EA00052684A609A4201D152684A60D168016002
:103EB0007047502080F31188BFF34F8FBFF36F8F8F
:103EC000FEE7000058000020C00700201CB537485E
:103ED0000168374A914207D1502080F31188BFF31F
:103EE0004F8FBFF36F8FFEE700683149491E88424C
:103EF00007D1502080F31188BFF34F8FBFF36F8F2E
:103F0000FEE72C4908780190FF20087008788DF8AA
:103F100000009DF800009DF8002000F0F0009042A5
:103F200007D0502080F31188BFF34F8FBFF36F8FFE
:103F3000FEE79DF80000204C00F0500020700720A4
:103F4000A06005E09DF8002052008DF80020401E82
:103F50009DF800201206F5D4A060032807D0502059
:103F600080F31188BFF34F8FBFF36F8FFEE74FF4DD
:103F70004070A060019808700C482030016841F43E
:103F800070010160016841F070410160FFF734FE8B
:103F900000206060FCF726F90848016841F04041C4
:103FA0000160FCF70BF900201CBD000000ED00E0F3
:103FB00071C20F4100E400E0B400002034EF00E0E3
:103FC00010B5502080F31188BFF34F8FBFF36F8F70
:103FD00000F072F818B104494FF0805008600020DA
:103FE00080F3118810BD000004ED00E02DE9FF5FB3
:103FF0008346DDE90E87994616468A469000FFF70C
:10400000C1FC05001CD05420FFF7BCFC040014D0F8
:104010000020256384F85100CDE90240CDE90087F6
:104020004B46324651465846FFF7FCFB2046FFF709
:1040300021FB012004B0BDE8F09F2846FFF7AAFD50
:104040004FF0FF30F6E7F0B585B0DDE90B640A9D6F
:10405000A6B1DCB1542700972663022684F851608C
:10406000002604AFCDE90246CDE90057FFF7DAFBA1
:104070002046FFF7FFFA049805B0F0BD502080F30A
:104080001188BFF34F8FBFF36F8FFEE7502080F38F
:104090001188BFF34F8FBFF36F8FFEE7054841696B
:1040A00019B1006B18B10020704701207047022041
:1040B00070470000580000202DE9F0412F4C0026E9
:1040C000206B28B1A069401CA0613046BDE8F0819A
:1040D000E5686D1CE56013D1606B006838B1502055
:1040E00080F31188BFF34F8FBFF36F8FFEE7606BD4
:1040F000A16B6163A063206A401C2062FFF704FC8F
:10410000A06ADFF87C80854209D3606B0068A0B1AB
:10411000606BC068C7687868854211D2A062206869
:10412000C06A00EB800158F82100012800D901265F
:10413000E0690028C9D00126C7E74FF0FF30EDE75E
:10414000381DFFF7A3FCB86A18B107F11800FFF794
:104150009DFCF96A0120226988401043206101EB2F
:10416000810108EB8100391DFFF7D4FCF86A216852
:10417000C96A8842C9D30126C7E700005800002059
:10418000C00700202DE9F0472C4D00242746286B5E
:1041900038B1FFF7CBFC286B401E2863286B40B179
:1041A00046E0502080F31188BFF34F8FBFF36F8F2D
:1041B000FEE7A968224E0120D1B3A6F1B4098046DA
:1041C0003068E8B1F068C46804F11800FFF75EFCDD
:1041D000201DFFF75BFCE06A2A6908FA00F1114331
:1041E000296100EB800109EB8100211DFFF792FCA2
:1041F000E06A2968C96A8842E2D3C5F81C80DFE713
:104200000CB1FFF781FBAC6944B14646FFF754FFA0
:1042100000B1EE61641EF9D10020A861E86938B1EF
:104220000849012738070860BFF34F8FBFF36F8F2E
:10423000FFF79CFC3846BDE8F087000058000020DE
:104240007408002004ED00E02DE9F041002704008F
:1042500015D0FFF7E3FC5020EFF3118580F31188B0
:10426000BFF34F8FBFF36F8F2046FFF771FB30B363
:10427000154E306B58B104F1180114481DE0502060
:1042800080F31188BFF34F8FBFF36F8FFEE7E06AB3
:104290003168C96A884200D30127201DFFF7F6FB69
:1042A000E16A0120326988401043306101EB8100EE
:1042B0000649B43901EB8000211DFFF72BFC85F383
:1042C00011883846BDE8F0815800002074080020AD
:1042D0002043000825230008FFFF00000000000025
:1042E0000001000000000000000000002C43000856
:1042F000B9240008000000000000000000020000D7
:1043000000000000000000000000000000000000AD
:10431000010203040607080900000000010203046B
:104320004D61696E5461736B0000000053656E73DC
:104330006F725461736B0000584300080000002046
:10434000C4000000EC2A00081C440008C40000203F
:10435000EC470000FC2A0008000000008813000061
:10436000484F4E4F522039580031393835333433A5
:10437000303135003139322E3136382E3133372E47
:10438000310000000000000000000000FFFFFFFF00
:10439000000000000000000000000000000000001D
:1043A0000100000010000000000000000024F400E4
:1043B00000000000000000000000000000000000FD
:1043C00000000000000000000000000000000000ED
:1043D00000000000000000000000000000000000DD
:1043E00000000000000000000000000000000000CD
:1043F00000000000000000000000000000000000BD
:1044000000000000000000000000000000000000AC
:0C441000AAAAAAAA0000000000000000F8
:040000050800018965
:00000001FF
